:100000006F10306B1300000013000000130000009D
:100010001300000013000000130000001300000094
:100020001300000013000000130000001300000084
:08003000130000007300100032
:1000380000000000000000007A1900007E1900008E
:1000480000000000F81D0000000000000000000093
:10005800FA1D0000FC1D0000000000000000000068
:10006800FE1D000000000000001E0000000000004F
:10007800021E0000041E0000061E0000081E0000EC
:100088000A1E00000C1E00000E1E0000101E0000BC
:10009800121E0000141E0000161E0000181E00008C
:1000A8001A1E00001C1E00001E1E0000201E00005C
:1000B800221E0000241E0000261E0000281E00002C
:1000C8002A1E00002C1E00002E1E0000301E0000FC
:1000D800321E0000341E0000361E0000381E0000CC
:1000E8003A1E00003C1E00003E1E0000401E00009C
:1000F800421E0000441E0000461E0000481E00006C
:100108004A1E0000361400006C1400007E15000022
:10011800521E0000541E0000561E0000581E00000B
:100128005A1E00005C1E00005E1E0000601E0000DB
:10013800621E0000641E0000661E0000681E0000AB
:10014800B4150000C61600006E1E0000701E0000E8
:10015800721E0000741E0000761E0000781E00004B
:100168007A1E00007C1E00007E1E0000801E00001B
:10017800821E0000841E0000861E0000881E0000EB
:100188008A1E00008C1E00008E1E0000CC17000086
:100198003E18000074180000961E0000981E00000B
:1001A8009A1E00009C1E00009E1E0000A01E00005B
:1001B800A21E0000A41E0000A61E0000A81E00002B
:1001C800AA1E0000AC1E0000AE1E0000B01E0000FB
:1001D8000000000000000000000000000000000017
:1001E8000000000000000000000000000000000007
:0801F8000000000000000000FF
:1002000079718545116506D622D402C202C402C6A0
:1002100002C802CA02CC02CEEF10507C85451145BF
:10022000EF10D07B930700202312F1003714014018
:10023000E1473EC64C008D47130504803EC4EF10D5
:10024000F04F930700402312F1004C009147130533
:1002500004803EC6EF10904EF1673744014093870B
:1002600007203EC80C08B7070C00130504803ECCDD
:1002700002CA231E0100EF10307A054613050480E0
:1002800093055052EF20A008130504808545EF2008
:1002900040061305048093050004EF20A00CB25023
:1002A000225445618280797185453705020006D662
:1002B00022D426D202C202C402C602C802CA02CC9A
:1002C00002CEEF10907385451145EF103071371451
:1002D000014091472312F1008D44E1474C00130582
:1002E00004803EC626C4EF107045A1472312F100DA
:1002F0004C009147130504803EC626C4EF101044FD
:10030000F16737440040938707203EC80C08B707C1
:100310000C00130504403ECC02CA231E0100EF105E
:10032000B06F05461305044093055052EF10307E20
:10033000130504408545EF10D07B13050440930559
:100340000004EF202002B250225492544561828072
:10035000797185453705040006D622D426D202C21B
:1003600002C402C602C802CA02CC02CEEF10F06874
:1003700085452145EF1090663714014093070040F2
:100380002312F1008D44E1474C00130504C03EC622
:1003900026C4EF10B03A8567938707802312F100D7
:1003A0004C009147130504C03EC626C4EF10103917
:1003B000F16737540040938707203EC80C08B70701
:1003C0000C00130504803ECC02CA231E0100EF106E
:1003D000B06405461305048093055052EF10307346
:1003E000130504808545EF10D07013050480930534
:1003F0000004EF103077B25022549254456182804D
:10040000797185453705080006D622D402C202C498
:1004100002C602C802CA02CC02CEEF10105E8545A9
:100420004145EF10B05B930700402312F1000D44EB
:10043000E1474C00371501403EC622C4EF10103092
:100440008567938707802312F1004C009147371589
:1004500001403EC622C4EF10702EF16737540040B1
:10046000938707203EC80C08B7070C00130504C08B
:100470003ECC02CA231E0100EF10105A0546130598
:1004800004C093055052EF109068130504C08545D1
:10049000EF103066130504C093050004EF10906C54
:1004A000B25022544561828079718545370510002C
:1004B00006D622D402C202C402C602C802CA02CCB4
:1004C00002CEEF10905385454145EF1030518545E0
:1004D00013050002EF10905085672312F1000D44C0
:1004E000E1474C00371501403EC622C4EF101025ED
:1004F0009147371501402312F1004C009147130535
:1005000005403EC622C4EF107023F1679387072091
:100510003EC80C08B7070C00375500403ECC02CA55
:10052000231E0100EF10504F0546930550523755DA
:100530000040EF10D05D854537550040EF10705BEF
:10054000372500409305000413050580EF109061E6
:10055000B2502254456182807971854513050004AB
:1005600006D622D402C202C402C602C802CA02CC03
:1005700002CEEF10904885454145EF103046854743
:100580002312F1000D44E1474C00371501403EC6EF
:1005900022C4EF10B01A89472312F1004C00914792
:1005A000371501403EC622C4EF105019F1673724B9
:1005B0000040938707203EC80C08B7070C001305BE
:1005C00004803ECC02CA231E0100EF10F044054611
:1005D0001305048093055052EF10705313050480E7
:1005E0008545EF1010511305048093050004EF10AA
:1005F0007057B25022544561828079718545130548
:10060000000806D622D402C202C402C602C802CA28
:1006100002CC02CEEF10703E85454145EF10103CF4
:1006200091472312F1000D44E1474C00371501407A
:100630003EC622C4EF109010A1472312F1004C00D7
:100640009147371501403EC622C4EF10300FF167C5
:1006500037240040938707203EC80C08B7070C00DA
:10066000130504C03ECC02CA231E0100EF10D03A8D
:100670000546130504C093055052EF105049130569
:1006800004C08545EF10F046130504C0930500042F
:10069000EF10504DB25022544561828079718545EA
:1006A0001305001006D622D402C202C402C602C834
:1006B00002CA02CC02CEEF10503485454145EF10FE
:1006C000F031C1472312F1000D44E1474C003715CA
:1006D00001403EC622C4EF107006930700022312A9
:1006E000F1004C009147371501403EC622C4EF107F
:1006F000F004F167938707203EC80C08B7070C0089
:10070000372500403ECC02CA231E0100EF10D03036
:1007100005469305505237250040EF10503F854560
:1007200037250040EF10F03C9305000437250040CA
:10073000EF105043B250225445618280411122C4CF
:1007400006C62A84EF101040930500042285EF109E
:10075000B0407DD9B24022444101828001118545DB
:10076000214506CE22CC02C202C402C6EF101027D9
:1007700085452145EF10902637140140930700105E
:100780002312F1004C0093078004130504C03EC6F9
:10079000EF10C07A930700202312F100C1473EC634
:1007A0004C008D47130504C03EC4EF102079F24081
:1007B0006244056182800111930700102312F10049
:1007C00037150140C1473EC64C008D47130505C093
:1007D00006CE3EC4EF108076F24005618280411162
:1007E00022C437140140130504C09305002006C637
:1007F000EF109001130504C093050010EF10D00016
:10080000130504C093050010EF105000130504C039
:100810002244B2409305002041016F10207F411116
:1008200022C437140140130504C09305002006C6F6
:10083000EF10807D130504C093050010EF10007DBC
:10084000130504C02244B2409305001041016F100B
:10085000A07B411122C437140140130504C0930545
:10086000002006C6EF10407A130504C02244B240AF
:100870009305002041016F106079011122CC26CA36
:100880002AC606CE4AC8053F324537140140A14466
:10089000130404C013191500620561851379F90F5B
:1008A00093050010635A05022285EF10E075930549
:1008B00000202285EF104075228593050020FD144D
:1008C000EF10C07493F4F40F4A85E9F4F2406244E7
:1008D000D2444249056182802285EF102073C1BF56
:1008E000411106C622C42A84DD3D130580077137F5
:1008F0008D3701455937B13F22854137993F224411
:10090000B240410129BF411106C622C42A84C13D1B
:10091000130580079D37353F13050004B93F153F88
:100920002285A13F3D372244B2404101CDBD411156
:10093000938505FB22C42A8413F5F50F06C64D37AF
:10094000135544004105693F1375F4002244B24039
:10095000410179B79307F00363F3B700814593171B
:100960008501E18763D307000145138781C9A3008F
:10097000B700238CA1C8828001114AC88145014576
:1009800022CC4EC652C406CE26CA13898189453769
:10099000014493090008214A814413F5F40FA2850C
:1009A0007937B307990003C507008504A93FE3968B
:1009B00034FF05041374F40F13090908E31E44FD02
:1009C000F2406244D2444249B249224A05618280DF
:1009D000011122CC3384D5007D14A1463344D402C6
:1009E0004EC69309F6FF56C2AA9926CA52C406CE2D
:1009F0004AC85AC02A8A93F9F90F93D43500938ACA
:100A000081891374F40F93F5F40F637CB400F24002
:100A10006244D2444249B249224A924A024B056199
:100A200082805285139B740019375289569B63F458
:100A300029018504C9BFB3072B0103C507000509B8
:100A40001379F90FC935E5B7411106C621379387E8
:100A500081C903C7170003C681C99357370093960E
:100A6000770093878189B697B29793767700054789
:100A70003317D70083C607001347F7FF758F23800E
:100A8000E700B24041018280938781C903C7170004
:100A900003C681C9935537009387818913987500E0
:100AA0003E983298034E080093787700331315016F
:100AB0003363C30123006800138881C9638008027F
:100AC00085059E05AE97A145B297B385154133556F
:100AD000B54083C507004D8D2380A700931786017D
:100AE000E18763D107022107238C01C81377F70F31
:100AF0009307F00363E5E700A300E8008280A3000A
:100B0000080082800506238CC1C882809387818972
:100B100093860740130600080147B385E70023804A
:100B200005000507E31BC7FE93870708E396D7FE7A
:100B30008280411106C6D93FB240410135BD411105
:100B400006C629395145EF10D00A1305E00A493B82
:100B500009457933414569331305000451331305C1
:100B60001008BD3B1305F00CA53B1305100A8D3B87
:100B70001305800CB5331305600A9D331305800AF5
:100B800085331305F003A93B13051008913B1305AA
:100B9000F00FB9331305300DA1330145913313051F
:100BA000500D3D3B13050008253B1305900D0D3BF3
:100BB0001305100F35331305A00D1D3349450D33B3
:100BC0001305B00D313B13050004193B130500025A
:100BD000013B094531331305D00819335145093319
:100BE0001305400AF5391305600ADD391305F00ACB
:100BF000C539B240410135BF0111AE962A9622CCCB
:100C00004AC84EC652C406CE26CA2A8A2E8413F972
:100C1000F60F9379F60F63662403F2406244D244E0
:100C20004249B249224A056182802685A28585040F
:100C3000213D93F4F40FE3EA34FF05041374F40F39
:100C4000D9BFD284CDBF411122C4194433058502D6
:100C50000D641304043026C206C699442A94034541
:100C600004F4FD1493F4F40F05350504EDF8B240D7
:100C70002244924441018280411122C41944330527
:100C800085020D641304043026C206C699442A94D2
:100C9000034504F4FD1493F4F40F1345F5FF1375A5
:100CA000F50FDD330504EDF4B240224492444101D6
:100CB0008280411122C426C206C6AA84014413754B
:100CC000F40F0504B38784008387F7FF91E7B240F0
:100CD000224492444101828013F5F70FAD37C5B726
:100CE000411122C426C206C6AA8401441375F40F1A
:100CF0000504B38784008387F7FF91E7B24022445D
:100D000092444101828013F5F70FBD37C5B7011139
:100D100022CC4AC832C636C406CE26CA253983C577
:100D200081C9138781C903471700A2463246238E23
:100D3000B1C89385C1C9A380E5003E841389C1C9A8
:100D400036850DC6713F19463306C502AA84834510
:100D5000190003C5C1C9A1461376E60F9539F240C3
:100D6000624426854249D244056182809937E1BFB9
:100D7000011126CAAE84B735000022CC4AC82A84A5
:100D80003289938545523686280006CEEF10502EC4
:100D900019463306C502A6852285A1461376E60FBD
:100DA000A13D34004A86A68522859537F2406244EB
:100DB000D244424905618280011126CAAE84B7350A
:100DC000000022CC4AC82A8432899385C5523686CF
:100DD000680006CEEF10D02919463306C502A68555
:100DE0002285A1461376E60F013D74004A86A6854A
:100DF0002285313FF2406244D244424905618280FB
:100E0000011126CAAE84B735000022CC4AC82A8414
:100E10003289938545533686480006CEEF1050251B
:100E200019463306C502A6852285A1461376E60F2C
:100E3000E13354004A86A6852285D13DF2406244C2
:100E4000D244424905618280011126CAAE84B73579
:100E5000000022CC4AC82A8432899385C55336863D
:100E6000280006CEEF10D02019463306C502A6850D
:100E70002285A1461376E60F413334004A86A685C3
:100E800022857135F2406244D24442490561828034
:100E900001118545214506CE22CC26CAEF1000342B
:100EA00085452145EF10803385452145EF100033FE
:100EB00085452145EF1080323714014093048004AA
:100EC00091674C00130504C02312F10026C6EF10F1
:100ED000E00689674C00130504C02312F10026C602
:100EE000EF10C005E1774C00130504C02312F10098
:100EF00026C6EF10A00485674C00130504C026C663
:100F00002312F100EF108003F2406244D2440561E5
:100F1000828037150140C145130505806F10C00E52
:100F20003715014093050002130505806F10C00DB1
:100F300001118545114506CE22CC26CA4AC802C2F7
:100F400002C402C6EF10802985451145EF10002923
:100F500037140140C1470D49C1444C0013050480BA
:100F60002312F1004AC426C6EF00507D9307000209
:100F70004C00130504802312F1004AC426C6EF007A
:100F8000F07B413F713FF2406244D24442490561E7
:100F90008280411122C437140140C14513050480E9
:100FA00006C6EF10C005C14501C9130504802244DF
:100FB000B24041016F108005130504802244B24005
:100FC00041016F106004011122CC26CA4AC84EC6E6
:100FD00052C406CE9386818003C6560083C766003E
:100FE00003C72600B18F03C6460013848180B7492A
:100FF0000040B18F03C6360037590040130A840001
:10100000B18F03C61600B98F93890940B18FA383AE
:10101000F60093860181B307E04003C6560003C77C
:10102000660093F7F70F2381F600318F03C6460061
:1010300093840181130909C0318F03C63600318FB3
:1010400003C61600318FB98FA383F60083450400D1
:101050004E850504EFF08FEE83C504004A858504B4
:10106000EFF0CFED83C5F4FF37550040EFF00FED03
:101070008345F4FF37250040EFF04FEC2945EF1092
:101080004037E31544FDF2406244D2444249B2493C
:10109000224A05618280011122CC3704002026CA31
:1010A0004AC84EC61307040706CE91478346170069
:1010B0002301F70083476700130404073749004002
:1010C000B58F83465700B754004093098400B58F0D
:1010D0008346470013090940938404C0B58F8346B3
:1010E0003700B58F93C74700A303F700834504007B
:1010F0004A850504EFF08FE48345F4FF2685EFF081
:10110000EFE38345F4FF37550040EFF02FE38345CD
:10111000F4FF37250040EFF06FE22945EF10602D16
:10112000E31634FDF2406244D2444249B2490561BB
:101130008280011122CC3704002026CA4AC84EC63C
:101140001307040706CE9547834617002301F700CF
:10115000834767001304040737490040B58F83466F
:101160005700B754004093098400B58F8346470069
:1011700013090940938404C0B58F83463700B58FA7
:1011800093C75700A303F700834504004A8505046D
:10119000EFF0CFDA8345F4FF2685EFF02FDA8345B1
:1011A000F4FF37550040EFF06FD98345F4FF372542
:1011B0000040EFF0AFD82945EF10A023E31634FD2F
:1011C000F2406244D2444249B24905618280011131
:1011D00022CC3704002026CA4AC84EC6130704078B
:1011E00006CE9D47834617002301F700834767001B
:1011F0001304040737490040B58F83465700B7549E
:10120000004093098400B58F8346470013090940C5
:10121000938404C0B58F83463700B58F93C777009A
:10122000A303F700834504004A850504EFF00FD1BE
:101230008345F4FF2685EFF06FD08345F4FF3755E3
:101240000040EFF0AFCF8345F4FF37250040EFF0CB
:10125000EFCE2945EF10E019E31634FDF240624469
:10126000D2444249B249056182800111014506CE4E
:1012700022CCEF00F0590544930790022800231474
:10128000F10022C623050100EF00F0580145EF00F0
:1012900030589307C00228002314F1002305810071
:1012A00022C6EF0050570145EF0090569307D00239
:1012B0002314F100280089472305F10022C6EF001E
:1012C00090550145EF00D0549307E0022314F1003C
:1012D00028008D472305F10022C6EF00D0530145B9
:1012E000EF001053930720042314F10028009147C6
:1012F0002305F10022C6EF0010520145EF005051C6
:10130000930760042314F100280095472305F1009A
:1013100022C6EF0050500145EF00904F9307700434
:101320002314F100280099472305F10022C6EF009D
:10133000904E0145EF00D04D9307C0032314F100F8
:1013400028009D472305F10022C6EF00D04C01453F
:10135000EF00104C930750032314F1002800A1471D
:101360002305F10022C6EF00104B0145EF00504A63
:10137000930760032314F1002800A5472305F1001B
:1013800022C6EF0050490145EF00904893077003D3
:101390002314F1002800A9472305F10022C6EF001D
:1013A00090470145EF00D046930740042314F10015
:1013B0002800AD472305F10022C6EF00D0450145C6
:1013C000EF001045930750042314F1002800B147A3
:1013D0002305F10022C6EF0010440145EF00504301
:1013E000930770052314F1002800B5472305F10089
:1013F00022C6EF0050420145EF009041930780055F
:101400002314F1002800B9472305F10022C6EF009C
:1014100090400145EF00D03F930790052314F10061
:101420002800C94722C62305F100EF00D03EF24054
:10143000624405618280411122C637440140930510
:10144000505213050480EF00D07209CD930550521D
:1014500013050480EF00307613050480EF00306F31
:101460002386A1843244410173002030411122C6F9
:10147000374400409305505213050440EF00706F4D
:1014800009CD9305505213050440EF00D0721305A7
:101490000440EF00D06B238CA1869387E18403C7BF
:1014A000070085466303D70419CB89466300D70636
:1014B0008D46630AD706324441017300203003C6CB
:1014C00081871307500AE318E6FE1387D184034689
:1014D00007002380D70093870185B297130650FA3F
:1014E0002380C7002300D700F9B79386D18403C6B1
:1014F000060013870185329703C681872300C70042
:1015000009472380E6002380E70075B79386D184DE
:1015100003C6060013870185329703C6818723001F
:10152000C7000D47F9BF03C581871387018583462F
:1015300027008345170013864184B58D9386D18497
:101540006398A50203C506002380070023800600D8
:101550003A952300B50083471700834627000347C9
:101560003700A207B6972310F60023A0E184A1B7A5
:101570002380060023800700231006002DBF4111A1
:1015800022C6375400409305505213050480EF00E3
:10159000505E09CD9305505213050480EF00B061F1
:1015A00013050480EF00B05A238AA184324441011C
:1015B00073002030411122C6375400409305505229
:1015C000130504C0EF00F05A09CD930550521305DE
:1015D00004C0EF00505E130504C0EF005057A38C09
:1015E000A186138761858347070085466383D704F7
:1015F00099CB89466380D7068D46638AD7063244E5
:1016000041017300203003C691879307500AE31805
:10161000F6FE2300D7001387518503460700938702
:101620008185B297130650FA2380C7002300D700A4
:10163000F9B79386518503C6060093878185B297D3
:1016400003C691872380C70089472380F6002300C3
:10165000F70075B79386518503C606009387818589
:10166000B29703C691872380C7008D47F9BF03C592
:1016700091879387818583C6270083C517001386CA
:101680008184B58D938651856396A50203C50600B6
:1016900023000700238006003E952300B50003C702
:1016A000170083C6270023A00700220736972310C0
:1016B000E600B1B723A0070023800600230007003F
:1016C000231006002DBF9305505237550040EF0000
:1016D000504A09CD9305505237550040EF00B04DA8
:1016E00037550040EF00B046238DA1861387D18582
:1016F0008347070085466381D70489CB8946638E7B
:10170000D7048D466388D7067300203003C6A187AF
:101710009307500AE31AF6FE2300D7001387C1850A
:101720000346070093870186B297130650FA238079
:10173000C7002300D700C9BF9386C18503C6060032
:1017400093870186B29703C6A1872380C700894784
:101750002380F6002300F70045BF9386C18503C6AA
:10176000060093870186B29703C6A1872380C7002E
:101770008D47F9BF03C5A1879387018683C62700DC
:1017800083C517001386A184B58D9386C1856396A2
:10179000A50203C5060023000700238006003E952E
:1017A0002300B50003C7170083C6270023A0070046
:1017B000220736972310E60081BF23A0070023806D
:1017C000060023000700231006003DBF411122C67A
:1017D00026C4EFF00FFCB724004093055052138548
:1017E0000480EF0010391384B18709CD930550525E
:1017F00013850480EF00303C13850480EF00303502
:101800002300A40003470400938781862380E70018
:10181000A380E7002381E700A381E7002382E7009C
:10182000A382E70099462382D18685476314F70097
:10183000EFF06FF93244A2444101730020304111AE
:1018400022C63724004093055052130504C0EF0010
:10185000503209CD93055052130504C0EF00B03546
:10186000130504C0EF00B02E2387A1863244410146
:10187000730020309305505237250040EF00702F41
:1018800009CD9305505237250040EF00D03237255F
:101890000040EF00D02B238EA1861387018783475A
:1018A000070085466381D70489CB8946638ED704B8
:1018B0008D466388D7067300203003C6C18793071F
:1018C000500AE31AF6FE2300D7001387F186034679
:1018D000070093874187B297130650FA2380C70009
:1018E0002300D700C9BF9386F18603C606009387FD
:1018F0004187B29703C6C1872380C70089472380E9
:10190000F6002300F70045BF9386F18603C6060064
:1019100093874187B29703C6C1872380C7008D474D
:10192000F9BF03C5C1879387418783C6270083C555
:10193000170013866184B58D9386F1866396A502A0
:1019400003C5060023000700238006003E95230000
:10195000B50003C7170083C6270023A0070022078E
:1019600036972310E60081BF23A0070023800600DE
:1019700023000700231006003DBF7300203001A0A4
:10198000411106C6EFF07F8EEF005024EFF04FDAE2
:10199000EFF0EF9AEFF0CFCFEFE09F86EFE0BF9050
:1019A000EFE01F9BEFE0DFA5EFE01FB0EFE0DFBA55
:1019B000EFE0BFC4B24041016FE05FCE5D7186C60B
:1019C000A2C4A6C2CAC04EDE52DC62D456DA5AD8CD
:1019D0005ED666D26AD06ECE6537B7360000938683
:1019E000C654014681450145EFF06FB2B73600009D
:1019F000938606550146814513058002EFF02FB10D
:101A0000373A000093064A550146A1450145EFF0DB
:101A10000FB037340000930684550146A1451305E5
:101A20008004EFF0CFAEB73900009386C955014668
:101A3000C1450145EFF0AFAD930684550146C14560
:101A400013058004EFF0AFAC373900009306095658
:101A50000146E1450145EFF08FAB93068455014601
:101A6000E14513058004EFF08FAAB7340000938698
:101A700044560146930500020145EFF04FA9930635
:101A8000845501469305000213058004EFF02FA84A
:101A900093064A550146930500030145EFF02FA731
:101AA0009386C95501469305000313050004EFF022
:101AB0000FA6930609560146930580030145EFF0F2
:101AC0000FA5938644560146930580031305000431
:101AD000EFF0EFA3B737000003AC4754B73700006F
:101AE00083A7875401443EC683A68182014681456F
:101AF0002945EFF0EFA783A6C18201468145130572
:101B00002003EFF0EFA61387E18783560700014615
:101B1000A1454945EFF0CFAE938DA18183D60D004D
:101B20000146A14513054005EFF00FA993870188F1
:101B300083D607000146C1454945EFF06FAC138DD0
:101B4000E18183560D000146C14513054005EFF0C4
:101B5000AFA6138B218883560B000146E14549450A
:101B6000EFF00FAA938C218283D60C000146E14549
:101B700013054005EFF04FA4938A418883D60A00ED
:101B80000146930500024945EFF08FA71388618253
:101B90008356080001469305000213054005EFF047
:101BA000AFA183C681810146930500036145EFF033
:101BB000AFA0138A918183460A0001469305000372
:101BC00013058002EFF04FA883C6C181014693053B
:101BD000000313054005EFF02F9E9389D18183C642
:101BE000090001469305000313058006EFF0CFA519
:101BF00083C601820146930580036145EFF0CF9BC8
:101C00001389118283460900014693058003130559
:101C10008002EFF06FA383C64182014693058003E3
:101C200013054005EFF04F999384518283C6040059
:101C300001469305800313058006EFF0EFA00146EF
:101C4000A28681451305A005EFF08F92EFF06FCECD
:101C500013054006EF00E07983D641841388618242
:101C60002390DD0083D6618405041374F40F2310E0
:101C7000DD0083D681842390DC0083D5A1842310EA
:101C8000B800EFF04FC113054006EF00807603D592
:101C90004184EF00B029E285EF00E07AEF00B02345
:101CA0001387E1872310A70003D56184EF00102874
:101CB000B737000083A54754EF00E078EF00B0216C
:101CC000938701882390A70003D58184EF00102615
:101CD000B245EF004077EF0010202310AB0003D592
:101CE000A184EF00B024B737000083A58754EF002C
:101CF0008075EF00501E2390AA00EFF04FCD130522
:101D00004006EF00006F83D741842300FA0083D799
:101D100061842380F90083D781842300F90083D76D
:101D2000A1842380F400C9B3B71702409843B706D3
:101D3000FFF841111367170098C3D8433706020014
:101D4000758FD8C39843B706F7FEFD16758F98C3F5
:101D50009843B706FCFFFD16758F98C3D843B706A6
:101D600081FFFD16758FD8C39843B70600ECFD16AA
:101D7000758F98C33707FF0098C723A6070202C4D0
:101D800002C69843C166558F98C3B71602401167C3
:101D90009C42F18F3EC6A24785073EC4B24781E709
:101DA000A247E397E7FEB71702409C431397E7006B
:101DB0006350070485473EC6324785476318F702DC
:101DC000B7170240D843B7160240D8C3D843D8C388
:101DD000D843D8C3D843719BD8C3D84313671700DF
:101DE000D8C31147DC42B18BE39EE7FE41018280FC
:101DF00002C6D9B701A001A001A001A001A001A0C5
:101E000001A001A001A001A001A001A001A001A0CA
:101E100001A001A001A001A001A001A001A001A0BA
:101E200001A001A001A001A001A001A001A001A0AA
:101E300001A001A001A001A001A001A001A001A09A
:101E400001A001A001A001A001A001A001A001A08A
:101E500001A001A001A001A001A001A001A001A07A
:101E600001A001A001A001A001A001A001A001A06A
:101E700001A001A001A001A001A001A001A001A05A
:101E800001A001A001A001A001A001A001A001A04A
:101E900001A001A001A001A001A001A001A001A03A
:101EA00001A001A001A001A001A001A001A001A02A
:101EB00001A097F1FF1F9381E19B1761002013019F
:101EC0006114172500001305258897E5FF1F9385EA
:101ED00065131386018463FAC5008322050023A0DD
:101EE000550011059105E3EAC5FE1385018493852C
:101EF00041CA6377B500232005001105E36DB5FEE7
:101F0000FD42739002BCED4273904280B7620000C4
:101F10009382820873A0023097E2FFFF938202123D
:101F200093E2320073905230EFF01FE0970200000E
:101F3000938202A973901234730020309C4513F7EA
:101F4000070113F8F70001C7D8413368E80083D5CB
:101F5000050013F7F50F39C318418146854E3D4FF3
:101F6000930F800293028004214E3396DE00B3F873
:101F7000C500631116039398260033131F01134302
:101F8000F3FF3377E300B318180133E7E800639FEA
:101F9000F70550C98506E39AC6FD18C11307F00F6F
:101FA0006375B70454412146854E3D4F930F80021F
:101FB00093028004414EB398CE0033F7150163922B
:101FC000E8021317260001173313EF001343F3FF42
:101FD000B376D3003317E800D98E639DF701232A27
:101FE00015010506E319C6FD54C18280E39457FA32
:101FF00010C94DB7E39757FE23281501DDB74845B3
:102000006D8D3335A00082800CC982804CC98280DE
:1020100023A4A18882809387818894430347050085
:1020200089E683472500920731A8944305466391CA
:10203000C604834725000346150092076314D600A3
:1020400093E707F8B7E600E093F7F70FBA96238017
:10205000F6408546935757003397E6005441ADC686
:10206000938707048A07B7E600E0B69798C3828093
:102070008C4389466393D502834615008347250028
:102080006365D6008A06B69779BF9386E6038A060B
:10209000B69793F7F70F920765B790438D46631E87
:1020A000D60083461500834725006364D600860664
:1020B000D9BF9386C6078606E1BF94439147E39A4A
:1020C000F6F88347150085B79387070661BF371772
:1020D00002405C439146B18B6385D700A14663867D
:1020E000D706B7177A00938707201CC1371602401E
:1020F0005C4237070020130707009183BD8BBA9716
:1021000083C607001C41B3D7D7005CC15442A182EB
:102110009D8ABA9683C60600B3D6D70014C554422A
:10212000AD829D8A369703470700B3D7E7005CC5A9
:102130005842398393763700138741833697034794
:102140000700B3D7E7021CC982805C435443416750
:10215000C983F98E37F7FF1F0327C770BD8B890727
:102160001316170163480600454601476392C702EC
:10217000C94739A809476389E7023D476388E702F1
:1021800041476388E702454601476393C700C1475B
:1021900085E6B746024083A60680C18A8DC6B7167B
:1021A0007A009386062025A00147D9B70547B54791
:1021B000C5B70147BD47E9BFB7160240D4421396E1
:1021C000E600E35E06FCB7163D0093860690B387F3
:1021D000D7021CC101DF1C41858301BF99C5371798
:1021E00002401C4F5D8D08CF8280B7170240984F88
:1021F0001345F5FF798D88CF828099C53717024046
:102200005C4F5D8D48CF8280B7170240D84F134591
:10221000F5FF798DC8CF828083560501F577FD17CC
:10222000F58F83D66500397122DC06DED58F03D7A2
:10223000C5002318F5008356C500FD779387379FA7
:10224000F58F83D645002A842EC6D58F83D6850088
:10225000D58F83D6A500D58F2316F500835745016A
:10226000C207C18393F7F7CFD98F231AF500680807
:10227000EFF0FFE5B747014093870780B245631E43
:10228000F404A2578356C4006547B387E702C20629
:10229000C186984163D5060406070356C40042066A
:1022A000B3D7E702130740064186B3D6E702B3F778
:1022B000E7029206635706028E0793872703B3D778
:1022C000E70213F77700B367D700C207C18323146F
:1022D000F400F250625421618280925765B70A0778
:1022E0006DBF920793872703B3D7E702BD8BD58FC6
:1022F000E9BF81C98357C5000967D98F2316F50047
:1023000082800357C500F977FD17F98FC5BF13F712
:10231000F50F85471583B395B7006319F700930749
:10232000C500984301CED98D8CC38280894693071E
:102330004501E318D7FE93070501E5B793C5F5FFFF
:10234000F98DDDB793F5F51F2312B5008280035593
:1023500045001375F51F8280035505006D8D3335DB
:10236000A000828093C5F5FFC205C1812310B5008E
:10237000828013F7F50F85461583B397B600631374
:10238000D7020357C500F98F0357050001454207DF
:10239000418381CB0545A181B315B5006D8F3335E0
:1023A000E000828089466315D70003570501E1BF2D
:1023B00003574501C9BFA1818547B397B70093C7AC
:1023C000F7FFC207C1832310F500828083A7018332
:1023D00037177A0013070720B3D7E70293F7F70FF1
:1023E0002387F1881307803EB387E7022396F1889D
:1023F0008280B7F700E0D8438146799BD8C303D7E2
:10240000C1883306A70290CBD4CB98431367170338
:1024100098C3D843058B75DF9843799B98C3828016
:10242000138781831C43938641CA3E95636BD50015
:10243000B78600209386068063E5A60008C33E8524
:102440008280FD57EDBF797122D4135475014ECEB1
:1024500052CC9319950006D626D24AD056CA5AC8ED
:102460001374F40F93D99900135AF50169C49307B3
:10247000F00F6308F40E9397390037070004B3E9AF
:10248000E700130414F88144014B13D77501939AA4
:1024900095001377F70F93DA9A0013D9F50145CF1A
:1024A0009307F00F630CF7028E0A130717F8B707AC
:1024B0000004B3EAFA003A94014633452A01BD47C5
:1024C000AA869305140063E09710171700001307FE
:1024D000E7098A04BA949C40BA9782871304F40FE0
:1024E00063960A0C93E424000946C1BF0145130713
:1024F000F00FB7074000B2502254A6075E07A5832D
:102500007E05D98F92540259F249624AD24A424B0F
:102510005D8D45618280CA86D689328B8947630F7B
:10252000FB088D47E304FBFC854736856310FB1AE7
:1025300001478147C9B7639D090413D77501939A71
:1025400095001377F70F91440144054B93DA9A00F5
:1025500013D9F50131F7639D0A0093E41400054691
:10256000A9BF63920902A1441304F00F094B31BFC4
:10257000568561249307B5FF098CB39AFA001304BA
:10258000A4F801461DBFB1441304F00F0D4BF5BD77
:102590004E852EC69D249307B5FF1304A0F8B3996A
:1025A000F900098C8144014BB245C5B593E4340070
:1025B0000D4621B78947D286E315FBF6368513070A
:1025C000F00F81470DBF41639306F3FF13D6090156
:1025D00093D80A01B3F7D900B3FADA003388570366
:1025E000B389F80213570801B30A5603D6994E97D8
:1025F00033061603637357011A96C167FD17B37646
:10260000F7003378F800C206C29693996600935794
:102610000701B3393001E982B2979A07B3E6D900CE
:10262000B3E9D7009397490063D9070013D719007E
:1026300093F71900B369F7002E841307F40763506A
:10264000E00493F7790099C793F7F9009146638303
:10265000D70091099397490063D90700B70700F89D
:10266000FD17B3F9F900130704089307E00F63CBD4
:10267000E70493976900A5831377F70FADBD8547EE
:10268000B386E74011C76D4601478147E345D6E66B
:102690001307E4093397E9003337E000B3D7D900D3
:1026A000D98F13F7770019C713F7F7009146630323
:1026B000D700910713975700634C07009A07A5832B
:1026C000014715BD1307F00F814735B52E84B5B707
:1026D000054781470DB513577501370680009307ED
:1026E000F6FF1377F70F9305E007B3F6A7009357AC
:1026F000F501014563F4E50099C382808280930768
:10270000E0097D55E3EBE7FE93055009B3E7C6000A
:1027100063D7E5001307A7F63395E700828013051A
:1027200060093307E54033D5E7008280411106C6D2
:1027300022C415CD2A84D1209307E0093387A7400E
:102740009307600963C0E704A1469377F70F63D549
:10275000A60061153314A400260425802604135511
:102760009400B2402244DE075D8D41018280014425
:10277000260413559400B24022448147DE075D8D44
:10278000410182809307900963DDE7009307B5015B
:102790009546B317F400898EB337F0003354D40054
:1027A0005D8C954763D6A7009307B5FF3314F400FB
:1027B000B70600FCFD16937774003376D40085C30A
:1027C0009377F4009145638CB70011069317560078
:1027D00063D707009307F009758E3387A74013145A
:1027E00066002580260413559400B2402244937756
:1027F000F70FDE075D8D41018280C167637EF502C0
:102800009307F00F1307000263ECA700971700006F
:102810009387C7D9AA9703C507003305A7408280CD
:10282000218197170000938767D8AA9703C50700EF
:1028300061473305A7408280B7070001636EF5004A
:10284000618197170000938767D6AA9703C5070091
:1028500021473305A7408280418197170000938765
:10286000E7D4AA9703C5070041473305A7408280F4
:1028700035713ECBB707008093C7F7FF3ECE3EC809
:10288000C1779387872032C536C73AC942CD46CF34
:102890003ECA9387C1832AC42ACC884334012E863A
:1028A0002C0086DE36C2F922A24723800700F650AC
:1028B0000D618280011126CA93843500F19806CEFD
:1028C00022CC4AC84EC6A104B14763F5F404B14412
:1028D00063E4B4042A89EF00301193870189984397
:1028E0003A8429E4938741899C4399E781454A8545
:1028F000EF00407B23AAA188A6854A85EF00807A55
:10290000FD5963193507B1472320F9004A85EF00C7
:10291000D00D29A0E3DE04FAB1471CC10145F24005
:102920006244D2444249B249056182801C40858F8D
:1029300063CF0702AD4663F6F6001CC03E9404C0A8
:1029400031A05C406313870223A8F1884A85EF0019
:10295000D0091305B4009307440061993307F5408B
:102960005DDF3A94898F1CC05DBF5CC3C5B7228709
:10297000404085BF130435007198E30285FCB30520
:10298000A4404A850527E31C35FBB5BF01114AC8A1
:1029900003A9850022CC52C45AC006CE26CA4EC610
:1029A00056C22E84328B368A63ED260983D7C50042
:1029B00013F7074849C704408C495848AA8AB38985
:1029C000B4408D44B384E4020947B3C4E4021387DE
:1029D00016004E9763F3E400BA8493F70740C9C327
:1029E000A6855685EFF01FED2A890DE5B14723A096
:1029F000FA008357C4007D5593E707042316F400BB
:102A0000F2406244D2444249B249224A924A024BBD
:102A1000056182800C484E86C12D8357C40093F710
:102A2000F7B793E707082316F4002328240144C8C6
:102A30004E99B38434412320240104C45289637322
:102A40002A01528908404A86DA85912F1C440145A3
:102A5000B38727411CC41C403E99232024014DB755
:102A600026865685EF0010032A8961F10C485685A9
:102A7000B52FADBF83D7C500717126D34AD14ECFD4
:102A800006D722D552CD56CB5AC95EC762C566C39A
:102A900093F70708AA892E89B284B9C39C49A9E390
:102AA0009305000436C6EFF0FFE02320A900232899
:102AB000A900B24615E1B14723A0F9007D55BA50EF
:102AC0002A549A540A59FA496A4ADA4A4A4BBA4B82
:102AD0002A4C9A4C4D61828093070004232AF90006
:102AE00093070002A30CF1029307000302DA230DFF
:102AF000F10236CE930B5002971A0000938A0AC156
:102B0000054C294B26848347040099C3639C7709AD
:102B1000B30C9440638E0C00E6862686CA854E85EB
:102B2000EFF0DFE6FD576301F51AD256E69636DA86
:102B300083470400638A0718FD579304140002D0EA
:102B400002D63ED202D4A301010682DC83C5040072
:102B500015465685AD2B13841400825731E513F7C3
:102B6000070109C713070002A301E10613F7870055
:102B700009C71307B002A301E10683C604001307C7
:102B8000A002638BE602B25726848146254603479E
:102B9000040093051400130707FD6374E6068DC651
:102BA0003ED61DA0050485B7330555413315AC004D
:102BB000C98F3ED0A28459BF72479306470018437D
:102BC00036CE634907023AD6034704009307E00272
:102BD000631FF704034714009307A002631BF70267
:102BE000F2470904138747009C433ACE63C10702AA
:102BF0003ED235A83307E04093E727003AD63ED0CF
:102C0000E1B7B387670385462E84BA9749B7FD5766
:102C1000C5B7050402D28146814725460347040013
:102C200093051400130707FD6376E606F1F283456A
:102C300004000D46171500001305C5AD492911CD37
:102C400097170000938707AD1D8D93070004B39776
:102C5000A700025505045D8D2AD08345040019465E
:102C600017150000130545AB93041400230CB102A3
:102C7000B92925C597D7FFFF9387C73895E702572E
:102C8000F2471377071009CF91073ECED257D2975C
:102C90003EDA8DBDB387670385462E84BA97BDBFE4
:102CA0009D07E19BA107D5B778089706000093869A
:102CB00026CE4A860C104E8597000000E7000000E3
:102CC000FD572A8AE314F5FC8357C9007D5593F715
:102CD0000704E39607DE5255DDB378089706000037
:102CE000938606CB4A860C104E85012AD1BF797196
:102CF00056CA9C49BA8A984522D426D24ECE52CC86
:102D000006D64AD05AC85EC6AA892E84B284368AAC
:102D100063D3E700BA879CC00347340419C385070F
:102D20009CC01C4093F7070281C79C4089079CC048
:102D30000329040013796900631A0900130B940135
:102D4000FD5B5C449840998F634CF9041C408346BA
:102D5000340493F70702B336D000A5EB130634040E
:102D6000D2854E85829AFD576303F5041C401146B7
:102D70009840998B544481446397C700B384E640DC
:102D800063D3040081441C4418486354F700998FAE
:102D9000BE94014969047D5B63982405014509A837
:102DA00085465A86D2854E85829A631E75017D5569
:102DB000B250225492540259F249624AD24A424BCA
:102DC000B24B456182800509ADBF3307D4001306BD
:102DD0000003A301C7040347540493871600A29776
:102DE0008906A381E7049DBF85462286D2854E854C
:102DF000829AE30E65FB050945B7797122D426D284
:102E00004AD04ECE06D652CC56CA5AC8B68983C6C8
:102E10008501930790063289AA842E84138635048F
:102E2000638DF60263E2D706930780056388F61880
:102E300063EDD7006381062293073004638EF60AA0
:102E4000930A24042301D404C9A0930730066385A0
:102E5000F60A93074006E395F6FE1C40084393F6F6
:102E6000070893054500C5C61C410CC363D807007D
:102E70001307D002B307F040A301E4049716000043
:102E80009386068A29476DA8930700076384F61680
:102E900063E5D7029307E006638BF6189307F00605
:102EA000E390F6FA0C401C4313F80508138547001D
:102EB0006307080608C39C438DA893075007E38364
:102EC000F6FE93078007638BF61293073007E399AA
:102ED000F6F61C43D04181459386470014C383AA6C
:102EE00007005685ED2201C53305554148C05C40B9
:102EF0001CC8A301040471A81C43930A24049386EC
:102F000047009C4314C32301F4048547D5B793F6C7
:102F100007041C410CC3B9DAC207C18781BF93F50E
:102F2000050408C3C9D983D707001307F0066388CF
:102F3000E60E970600009386A67E2947A3010404A7
:102F40004C400CC463C5050008406D9908C099E366
:102F5000B28A91CDB28AB3F5E702FD1AB69583C560
:102F600005002380BA00B3D5E70263F0E70CA14760
:102F7000631EF7001C40858B91CB58401C4863C7EB
:102F8000E70093070003A38FFAFEFD1A33065641AC
:102F900010C84E87CA867000A2852685EFF03FD5FF
:102FA0007D5A631E450B7D55B250225492540259EE
:102FB000F249624AD24A424B45618280A382D504DB
:102FC000970600009386C6750C40084313F8050861
:102FD0001C411105630D080208C313F7150001C752
:102FE00093E505020CC04147B1FB0C4093F5F5FD9C
:102FF0000CC0A9B79C4193E707029CC193078007C7
:10300000A302F404970600009386C67275BF13F8F6
:10301000050408C3E30308FCC207C1837DBF97060C
:1030200000009386E66F214711BFAE872DB794410C
:103030001C43CC4913F806081385470063060800B3
:1030400008C39C438CC301A808C393F606049C43A1
:10305000F5DA2390B70023280400B28A1DBF144874
:103060005686CA8526858299E30F45F31C40898BD5
:103070008DE7B2474844E359F5F23E8535B78546BA
:103080005686CA8526858299E30F65F1050A5C4458
:103090003247998FE345FAFEE9BF014A930A94014A
:1030A0007D5BF5B7411122C42A842E8523A001CA75
:1030B00006C6EFF0EFB6FD576317F500938701CA18
:1030C0009C4391C31CC0B24022444101828093F5CD
:1030D000F50F2A966314C5000145828083470500D9
:1030E000E38DB7FE0505FDB7B3C7A5008D8B33078C
:1030F000C50081E78D4763EEC700AA876370E50AC4
:1031000083C6050085078505A38FD7FEE3EAE7FEA2
:10311000828093763500AA8791CA83C60500850709
:103120008505A38FD7FE93F63700FDB79376C7FFCB
:10313000138606FE63F0C70683A3050083A245003D
:1031400083AF850003AFC50083AE050103AE450123
:1031500003A3850183A8C5019385450223A07700B9
:1031600003A8C5FF23A2570023A4F70123A6E70164
:1031700023A8D70123AAC70123AC670023AE1701F8
:103180009387470223AE07FF75B7904191079105DA
:1031900023AEC7FEE3EBD7FEE3E4E7F6828063F3FA
:1031A000A504B386C500637FD5029345F6FF81472A
:1031B000FD176393F50082803387F600034807000C
:1031C0003387C7002A9723000701DDB73387F5004F
:1031D000834607003307F50085072300D700E31770
:1031E000F6FE82808147E5BF82808280DDC183A7B1
:1031F000C5FF411122C406C626C21384C5FF63D38E
:1032000007003E94AA84EFF03FFE938701899C4318
:1032100081EF2322040023A881882244B24026851E
:10322000924441016FF07FFC637EF4001440330749
:10323000D4006396E7009843DC43369718C05CC01F
:10324000D9BFBA87D84319C3E37DE4FE94433386DC
:10325000D700631F86001040B29694C33386D70010
:10326000E31DC7FA10435843B29694C3D8C375B749
:103270006375C400B1479CC04DB71040B306C4008D
:103280006316D70014435843B29614C058C0C0C345
:1032900069B7828081E5B2856FF0CFE1011122CC60
:1032A00006CE26CA4AC84EC6328401EEEFF01FF49D
:1032B0000149F24062444A85D2444249B24905611B
:1032C0008280AE84AA891D202689E37485FEA285AA
:1032D0004E85EFF02FDE2A8969DDA6852286EFF084
:1032E000BFE0A6854E85EFF07FF0E1B783A7C5FF6D
:1032F0001385C7FF63D50700AA959C413E95828040
:103300000000000000000000004F00000000070067
:10331000070000147F147F1400242A7F2A12002340
:10332000130864620036495522500000050300006E
:1033300000001C224100000041221C000014083E35
:1033400008140008083E080800005030000000087B
:10335000080808080000606000000020100804024F
:10336000003E5149453E0000427F4000004261510D
:103370004946002141454B31001814127F100027A7
:1033800045454539003C4A4949300001710905036A
:1033900000364949493600064949291E000036369B
:1033A00000000000563600000008142241000014FE
:1033B00014141414000041221408000201510906DB
:1033C00000324979413E007E1111117E007F49494A
:1033D000493E003E41414122007F4141221C007F85
:1033E00049494941007F09090901003E4149497A9B
:1033F000007F0808087F0000417F41000020404115
:103400003F01007F08142241007F40404040007F80
:103410000204027F007F0408107F003E4141413ECC
:10342000007F09090906003E4151215E007F09190C
:1034300029460046494949310001017F0101003F09
:103440004040403F001F2040201F003F4038403F89
:1034500000631408146300030478040300615149F5
:10346000454300007F4141000015167C1615000001
:1034700041417F00000402010204004040404040FE
:10348000000001020400002054545478007F484496
:10349000443800384444442000384444487F0038CD
:1034A0005454541800087E090102000C5252523E36
:1034B000007F080404780000447D40000020404460
:1034C0003D00007F102844000000417F4000007E46
:1034D000020C027C007E0402027C00384444443822
:1034E000007C1414140800081414187C007C0804D0
:1034F000040800485454542000043F444020003C39
:103500004040207C001C2040201C003C4030403CBF
:10351000004428102844000C5050503C004464548F
:103520004C44000025303464000000002530326433
:1035300000000000253034646D4100002530336404
:10354000000000000000884100000842583A0000D6
:10355000593A00004D313A00543A00004D323A00D9
:103560004D333A004D343A005EF0FFFFB0EFFFFFFD
:10357000B0EFFFFFAEEFFFFFB4EFFFFFB4EFFFFFD1
:1035800084EFFFFFAEEFFFFFB4EFFFFF84EFFFFF1D
:10359000B4EFFFFFAEEFFFFF4CF0FFFF4CF0FFFF7B
:1035A0004CF0FFFF84EFFFFF00010202030303035F
:1035B00004040404040404040505050505050505C3
:1035C00005050505050505050606060606060606A3
:1035D000060606060606060606060606060606068B
:1035E0000606060606060606070707070707070773
:1035F000070707070707070707070707070707075B
:10360000070707070707070707070707070707074A
:10361000070707070707070707070707070707073A
:103620000707070707070707080808080808080822
:10363000080808080808080808080808080808080A
:1036400008080808080808080808080808080808FA
:1036500008080808080808080808080808080808EA
:1036600008080808080808080808080808080808DA
:1036700008080808080808080808080808080808CA
:1036800008080808080808080808080808080808BA
:1036900008080808080808080808080808080808AA
:1036A00008080808080808080000000000000000DA
:1036B000000000000000000000000000000000000A
:1036C00000000000000000000000000000000000FA
:1036D00000000000000000000000000000000000EA
:1036E00000000000000000000000000000000000DA
:1036F00000000000000000000000000000000000CA
:103700000000000000000000232D302B20000000EE
:10371000686C4C00656667454647000030313233BF
:1037200034353637383941424344454600000000BD
:103730003031323334353637383961626364656627
:043740000000000085
:103744000000000001020304010203040607080943
:1037540000000000C8360000E8360000A83600006B
:103764000000000000000000000000000000000055
:103774000000000000000000000000000000000045
:103784000000000000000000000000000000000035
:103794000000000000000000000000000000000025
:1037A4000000000000000000000000000000000015
:1037B400A51700000A000000A50B32000A00000053
:1037C400A50B00000A00000001331F000234200092
:1037D4000335210004362200F4010000F401000046
:1037E40000127A00020406081405002010000020CC
:00000001FF
