:101364000001010023DF2211205D1EC11D3D1BCEA3
:101374001A73192B17F516D015BA14B413BB12D05F
:1013840011F1111D10550F970EE30E380D950CFB3E
:101394000C690BDE0B590ADC0A6409F20986091F81
:1013A40008BD0860080707B20762071506CB068563
:1013B4000642060305C6058C0554051F04ED04BC4E
:1013C400048E04620437040F03E803C3039F037D00
:1013D400035D033E0320030302E702CD02B4029B34
:1013E4000284026E025802440230021D020B01F90B
:1013F40001E801D801C901BA01AB019D0190018343
:101404000177016B015F0154014A013F0135012C51
:0D1414000123011A0111010901010102016A
:10188200042A0000000004450000000001620F016C
:101892003001C1844200040000013702012908011D
:0518A2006E14016D2829
:10002E0012182575FCFFD295200103020169C20149
:10003E00E5590470030200F424FEB40700400302E5
:10004E00016990005E75F003A4C58325F0C5837326
:10005E0002007302009002009502009A0200A402B0
:10006E0000B10200B7E47F09FEFDFCAB2DAA2CA95E
:10007E002BA82A1209D5E47B08FAF9F81217A20266
:10008E00016690000080089000328003900002E02C
:10009E00FEA3E0FF804B900004E0FEA3E0FF1216EB
:1000AE009B803E75C7E0020169E5FA7004FFFE8091
:1000BE003030CC1020CD0DAFFAC374FF9FFFE49407
:1000CE0000FE801D20CC1730CD14AFFAC374FF9FF5
:1000DE00FFE49400FE7CFF7DFF1209388003E4FFED
:1000EE00FE1218548075901365E493FFE4FCFDFE38
:1000FE007810120B3BC004C005C006C007901364F5
:10010E00E493FFE4FCFDFE7818120B3BD003D00203
:10011E00D001D000EF4BFFEE4AFEED49FDEC48FC5E
:10012E00C004C005C006C007901366E493FFE4FC4C
:10013E00FDFE7808120B3BD003D002D001D000EFA9
:10014E004BFBEE4AFAED49F9EC48F8A3E493FFEBCA
:10015E004FFFEAFEE9FDE8FC12162E200303020013
:10016E00360511E51170020510B4FF0AE510B4FF53
:10017E0005E4F510F511C2033005041512800205D1
:10018E00128512FBE512B4FF04D2058006E512704B
:10019E0002C205E562120B5A01DD0001E501022DD6
:1001AE000202460302780402D70503250603770AE6
:1001BE0003D00B04270C046B0D04AF0E05220F05A4
:1001CE00841005E514060315060E16000006171218
:1001DE00175AC295020617E47F05FEFDFCAB3FAA37
:1001EE003EA93DA83CD3120B004020E53F9405F5F7
:1001FE003FE53E9400F53EE53D9400F53DE53C942B
:10020E0000F53C12175AD20202061730020EC20235
:10021E00852D48852C47852B46852A450205F8E411
:10022E007F05FEFDFCAB3FAA3EA93DA83CD3120BB9
:10023E000040028017020603E47F05FEFDFCAB3F83
:10024E00AA3EA93DA83CD3120B00401BE53F9405E6
:10025E00F53FE53E9400F53EE53D9400F53DE53C69
:10026E009400F53C02036E02060EC3E548952DFB85
:10027E00E547952CFAE546952BF9E545952AF8AF15
:10028E0030EF3395E0FEFDFC1209D5C004C005C069
:10029E0006C007AE42AF437C007D0312099FAD300E
:1002AE00ED3395E0FC120938AB07AA06EA3395E068
:1002BE00F9F8D007D006D005D004C3120B005006B3
:1002CE0030040302036E02051DAF30EF3395E0FEDE
:1002DE00FDFCAB2DAA2CA92BA82A1209D5C004C04F
:1002EE0005C006C007AF30EF3395E0FEFDFCAB480E
:1002FE00AA47A946A8451209D5A804A905AA06AB7E
:10030E0007D007D006D005D004D3120B004005301D
:10031E000402804C02057FAF30EF3395E0FEFDFC0A
:10032E00AB2DAA2CA92BA82A1209D5C004C005C032
:10033E0006C007AF30EF3395E0FEFDFCAB48AA4791
:10034E00A946A8451209D5A804A905AA06AB07D047
:10035E0007D006D005D004D3120B00400930040696
:10036E0012175A0206170205E1E5434542702B307B
:10037E000428C204852D48852C47852B46852A45A1
:10038E00F557F558F56CF56BF56AF569852D4C85C5
:10039E002C4B852B4A852A498006E5434542700938
:1003AE00AE47AF481214AD8014AE10AF117C007D75
:1003BE000512094AED4C7005121285D204D295022F
:1003CE000617E47F05FEFDFCAB3FAA3EA93DA83C07
:1003DE00D3120B00402FE53F9405F53FE53E940008
:1003EE00F53EE53D9400F53DE53C9400F53CAE1040
:1003FE00AF117C007D0512094AED4C700312128577
:10040E00D20202061730020EC202852D48852C47F5
:10041E00852B46852A450205F8E47F05FEFDFCABDB
:10042E003FAA3EA93DA83CD3120B00402DE53F94B8
:10043E0005F53FE53E9400F53EE53D9400F53DE5BE
:10044E003C9400F53CAE10AF117C007D0512094ABC
:10045E00ED4C60030206170205DC020603E47F057D
:10046E00FEFDFCAB3FAA3EA93DA83CD3120B0040BB
:10047E002DE53F9405F53FE53E9400F53EE53D94B0
:10048E0000F53DE53C9400F53CAE10AF117C007DCF
:10049E000512094AED4C60030206170205DC02063E
:1004AE000EC3E548952DFBE547952CFAE546952BB1
:1004BE00F9E545952AF8AF30EF3395E0FEFDFC12D5
:1004CE0009D5C004C005C006C007AE42AF437C00CC
:1004DE007D0212099FAD30ED3395E0FC120938AB69
:1004EE0007AA06EA3395E0F9F8D007D006D005D072
:1004FE0004C3120B005018300415AE10AF117C005F
:10050E007D0512094AED4C60030206170205DCC296
:10051E00040205F8AF30EF3395E0FEFDFCAB2DAADB
:10052E002CA92BA82A1209D5C004C005C006C007E5
:10053E00AF30EF3395E0FEFDFCAB48AA47A946A8C5
:10054E00451209D5A804A905AA06AB07D007D006FF
:10055E00D005D004D3120B004017300414AE10AFE8
:10056E00117C007D0512094AED4C600302061780CE
:10057E005DC204020603AF30EF3395E0FEFDFCAB27
:10058E002DAA2CA92BA82A1209D5C004C005C00675
:10059E00C007AF30EF3395E0FEFDFCAB48AA47A98C
:1005AE0046A8451209D5A804A905AA06AB07D00787
:1005BE00D006D005D004D3120B004017300414AE71
:1005CE0010AF117C007D0512094AED4C703B1212E2
:1005DE00858036C2048029300410852D48852C472D
:1005EE00852B46852A45C204801FAE47AF4812149C
:1005FE00ADD2958014C2CCC2CDE4F5FAD295800965
:10060E00C2CCC2CD75FAFFD295121141C390000033
:10061E00E0648094805003121141E5372488F5BCC4
:10062E000537E537B40503753702D3900005E0941E
:10063E002E900004E064809483500302003675FB14
:10064E00FFC2CCC2CD75FAFFE4F5FC7FC8FE1218CE
:10065E00A875FCFF7FC87E001218A8E5372488F520
:0D066E00BC0537E537B405D675370280D1DD
:04169B00AD07AC06E5
:10169F00E4F513F514AB05AA04EA3395E0F9F87FE6
:1016AF00007EA07D0F7C001217A2EF2418FDEE34F0
:1016BF00FCFCE51425E0FFE51333FE74682FF5827B
:1016CF0074133EF583C37401939DE4939C501FE5FF
:1016DF001424E6FBE51334FFFAD3EB9441EA64805C
:1016EF00948040057E007F4122AF03AE0222051495
:0816FF00E51470BE051380BA6A
:10114100AF2DAE2CAD2BAC2AE54F25E025E02406D2
:10115100F582E43400F583120B4EE54F640A705FAB
:10116100900006E0FCA3E0FDA3E0FEA3E0FF9000F9
:101171002EE0F8A3E0F9A3E0FAA3E0FBC3120B16FB
:10118100401E900006E0F8A3E0F9A3E0FAA3E0FB1B
:1011910090002EE0FCA3E0FDA3E0FEA3E0021255C7
:1011A10090002EE0F8A3E0F9A3E0FAA3E0FB9000A1
:1011B10006E0FCA3E0FDA3E0FEA3E0C3021255E5B7
:1011C1004F25E025E0240AF582E43400F583E0FCB4
:1011D100A3E0FDA3E0FEA3E0FFE54F25E025E02429
:1011E10006F582E43400F583E0F8A3E0F9A3E0FA20
:1011F100A3E0FBC3120B16E54F402725E025E024B1
:101201000AF582E43400F583E0F8A3E0F9A3E0FAFB
:10121100A3E0FBE54F25E025E02406F582E4340058
:10122100802525E025E02406F582E43400F583E0FD
:10123100F8A3E0F9A3E0FAA3E0FBE54F25E025E000
:10124100240AF582E43400F583E0FCA3E0FDA3E089
:10125100FEA3E0C39BFFEE9AFEED99FDEC98FCE442
:101261007B0FFAF9F81209D5E47B04FAF9F8120AAE
:1012710060900000EEF0A3EFF0054FE54FB40B03D3
:04128100E4F54F221F
:1017E600FEFDFCAB68AA67A966A8651209D5E47B6D
:1017F60009FAF9F81217A2EF252DF548EE352CF562
:0B18060047ED352BF546EC352AF54583
:1018110030D210C2AF75FBFFE4F5FCC2CCC2CDF5EE
:04182100FA80FE2229
:101538008E428F43856168856067855F66855E65D5
:10154800856834856733856632856531E47F08FEB2
:10155800FDFCAB68AA67A966A8651209D5E47B09F2
:10156800FAF9F81217A28F488E478D468C45AF2D91
:10157800AE2CAD2BAC2AAB68AA67A966A865D312B6
:101588000B00400D753001E5426480948050218045
:10159800107530FFD3E5439400E5426480948040A1
:1015A8000FAE42AF437CFF7DFF1209388E428F4356
:0115B8002210
:100EC6008E428F43856168856067855F66855E654E
:100ED600E56264046009E562640E6003021034D3BF
:100EE600E5439400E542648094805003020F81E458
:100EF600FFFEFDFCAB68AA67A966A865D3120B00C6
:100F0600402B753001E52264046009E522640E6019
:100F160003021140E5342568F534E5333567F533CA
:100F2600E5323566F532E5313565020FBD7530FFC0
:100F3600E52264046005E522B40E3DE5342568F536
:100F460034E5333567F533E5323566F532E5313567
:100F560065F531121811E47F08FEFDFCAB34AA33A7
:100F6600A932A8311209D5E47B09FAF9F81217A2B9
:100F76008F488E478D468C45021131E4FFFEFDFCFD
:100F8600AB68AA67A966A865D3120B0040517530F5
:100F9600FFE52264046009E522640E600302114045
:100FA600C3E5349568F534E5339567F533E5329551
:100FB60066F532E5319565F531121811E47F08FEC4
:100FC600FDFCAB34AA33A932A8311209D5E47B095A
:100FD600FAF9F81217A28F488E478D468C4522756E
:100FE6003001E52264046005E522B40E3EC3E53413
:100FF6009568F534E5339567F533E5329566F53250
:10100600E5319565F531121811E47F08FEFDFCAB5C
:1010160034AA33A932A8311209D5E47B09FAF9F8C2
:101026001217A28F488E478D468C45021131D3E5A3
:10103600439400E54264809480406AE4FFFEFDFC30
:10104600AB68AA67A966A865D3120B00401E753067
:1010560001E47F08FEFDFC1217EFE5226404600937
:10106600E522640E60030211400210D77530FFE4DA
:101076007F081217E6E52264046005E522B40E2215
:10108600E47F09FEFDFCAB48AA47A946A84512091C
:10109600D5E47B08FAF9F81217A28F348E338D3215
:1010A6008C31021131E4FFFEFDFCAB68AA67A9662C
:1010B600A865D3120B00403C7530FF74FF7FF8FE25
:1010C600FDFC1217EFE52264046006E522640E704B
:1010D60069E47F09FEFDFCAB48AA47A946A845126C
:1010E60009D5E47B08FAF9F81217A28F348E338DEE
:1010F600328C312275300174FF7FF81217E6E52233
:1011060064046005E522B40E22E47F09FEFDFCAB13
:1011160048AA47A946A8451209D5E47B08FAF9F872
:101126001217A28F348E338D328C31AE42AF437C90
:0B113600FF7DFF1209388E428F43221C
:04128500AF43AE4283
:10128900AB07AA06C3E54C952DFFE54B952CFEE56A
:101299004A952BFDE549952AFCC006C007EA339516
:1012A900E0F9F8D007D006EF2BF553EE3AF552EDF9
:1012B90039F551EC38F550AE52AF53EF2558F55882
:1012C900EE3557F557C3E558946AE5576480947F1E
:1012D90050087557FF75586A8013D3E5589496E5F9
:1012E90057648094804006755700755896C3EF95EA
:1012F9006CF556EE956BF55590141EE493FF3395F6
:10130900E0FEFDFCAB53AA52A951A8501209D5AB76
:1013190007AA0690141FE493FF3395E0FEAC57AD7E
:1013290058120938EF2BFBEE3AFAA3E493FD3395F3
:10133900E0FCAE55AF5612099FEF2BFFEE3AFE12B5
:10134900175E85536C85526B85516A855069852D69
:0B1359004C852C4B852B4A852A49222D
:1014AD00C3EF952DF564EE952CF563FCAD64120834
:1014BD007E7BCD7ACC794C783F120773C004C00582
:1014CD00C006C007AC35AD36EC12087ED003D00295
:1014DD00D001D0001206821208B78E358F36C3E5C3
:1014ED00649541F52FE5639540F52EE56EFD339539
:1014FD00E0FC12099FAA06AB07AF29EF3395E0FE7A
:10150D00AC63AD64120938EF2BFBEE3AFAAF6DEF19
:10151D003395E0FEAC2EAD2F120938EF2BFFEE3ACE
:0B152D00FE12175E85634085644122BA
:1018A800EF1FAA0670011E4A6013E4FCFDC3ED9405
:0D18B8005CEC940350EA0DBD00010C80F0C3
:0118C5002200
:03002B000215B902
:1015B900C0E0C0F0C083C082C0D075D00853BC075A
:1015C900E5BC540724FD601C1460382402704BAF3D
:1015D900BDEF75F004A4ADBE7C002DFEEC35F09096
:1015E90000028032AFBDEF75F004A4ADBE7C002DC2
:1015F900FFEC35F0CF24E2CF34FF900004F0A3EFE5
:10160900F08017AFBDEF75F004A4ADBE7C002DFED0
:10161900EC35F0900032F0A3CEF0D0D0D082D08358
:05162900D0F0D0E0321A
:03000300021707DA
:10170700C0E0C0D075D000C000C001C002A2B63092
:10171700B201B3401A74FF252DF52DE52C34FFF5E2
:101727002CE52B34FFF52BE52A34FFF52A8019E445
:10173700FAF9F8E52D2401F52DEA352CF52CE935D4
:101747002BF52BE8352AF52AD002D001D000D0D0CE
:03175700D0E032AD
:03001300020006E2
:04000600754400320B
:03002300020B804D
:100B8000C0E0C0F0C083C082C0D075D008209803F8
:100B9000020EB4C29830B32DE544C39408502674B5
:100BA000212544F8A69974212544F8E6FF12001681
:100BB000AF441200160544AF44120016E52164A5A7
:100BC0006003754400E54464086003020EB4E52840
:100BD00064A57026E527B4A521E526B4A51CE52566
:100BE000B4A517E524B4A512E523B4A50DE522B4F8
:100BF000A508D2017559FF020EB1E528B527047F7B
:100C00000180027F00E5266F652565246523652246
:100C10007003020EB1756100756000755F00755E4E
:100C200000E5614524F561E560F560E55FF55FE5A8
:100C30005EF55EAF61AE60AD5FFC7808120B3BA85D
:100C40000CA90DAA0EAB0FEB4525F561EAF560E99D
:100C5000F55FE8F55EAF617808120B3BA80CA90DB3
:100C6000AA0EAB0FEB4526F561EAF560E9F55FE802
:100C7000F55EAF617808120B3BA80CA90DAA0EAB6C
:100C80000FEB4527F561EAF560E9F55FE8F55EE50C
:100C900022C394044003020D1E852262AF23EF336A
:100CA00095E0F5428F43FCAD4312087EE4FBFA79F0
:100CB000C0783F1207731208B78E428F43E5627007
:100CC0000CF53FF53EF53DF53CD2958022E47F05DD
:100CD000FEFDFCAB3FAA3EA93DA83CD3120B004051
:100CE0000E85613F85603E855F3D855E3CD2957592
:100CF0003500753600754000754100E562700CF5F1
:100D00003FF53EF53DF53CD295800E85613F85600F
:100D10003E855F3D855E3CC295D202020EB1E52262
:100D2000C394075025AF23EF3395E0F5428F43FC82
:100D3000AD4312087EE4FBFA79C0783F12077312C4
:100D400008B7120EC6852262802DE522C3940A5090
:100D500035AF23EF3395E0F5428F43FCAD431208E6
:100D60007EE4FBFA79C0783F1207731208B71215B8
:100D700038E52224FDF562753500753600754000B2
:100D8000754100020E9FE522C3940E5060AF23EF21
:100D90003395E0F5428F43E543AE427803C333CE4B
:100DA00033CED8F9FF7C007D0A12099F8E428F4313
:100DB000E522640A600C75350075360075400075D3
:100DC0004100852262E562B40A10753F00753E005D
:100DD000753D00753C00D295800E85613F85603E73
:100DE000855F3D855E3CC295D202020EB1E522C30D
:100DF00094115051AF23EF3395E0F5428F43E54313
:100E0000AE427803C333CE33CED8F9FF7C007D0ADF
:100E100012099F120EC6852262753500753600755F
:100E20004000754100755700755800756C00756B72
:100E300000756A00756900852D4C852C4B852B4A01
:100E4000852A49805AE522C394145049AF23EF33D1
:100E500095E0F5428F43FEAF437C007D0212099F6F
:100E6000121538E52224FDF56275350075360075DA
:100E70004000754100755700755800756C00756B22
:100E800000756A00756900852D4C852C4B852B4AB1
:100E9000852A49800AE522C394175009852262D227
:100EA00004C295800CE522C394185005D201852315
:100EB00059754400309904C299C200D0D0D082D074
:060EC00083D0F0D0E03207
:10162E008F168E158D148C13D2007599A52000FD82
:10163E00D200AF16AE15AD14AC137818120B278F5F
:10164E005A8F992000FDD200AF16AE15AD14AC1313
:10165E007810120B278F5B8F992000FDD200AF16EA
:10166E00AE15AD14AC137808120B278F5C8F992032
:10167E0000FDD200AF168F5D8F992000FDD200E5E0
:0D168E005A655B655C655DF5992000FD22E5
:10185400AD07AC06D2007599A52000FDD200ECFFBF
:101864008F5A8F992000FDD200AF058F5B8F99208E
:0E18740000FDD200E55A655BF5992000FD22CB
:03000B0002001ED2
:03001E00D20332D8
:10182500759223E4F59175CAFFF5C975B220F5B136
:10183500D2AFD2ACD2A875B801D2AAD2A9D2ADC2C4
:0F18450088D28A1218E41218C61218F702000E81
:04000E00759D1C229E
:1018E400759850438E01438E0475D7B875D6FF435F
:0318F4008E102231
:1018C600E4F5A2F5D8F5E9F5F975D98C75DA42F59E
:0E18D600F275DB42F5F375DC42F5F4D2DE224A
:1018F700538E7F5389F0E4F58A758CCAC28DD28CDA
:0119070022BD
:04175A00AF43AE42A9
:10175E00C3EF946AEE6480947F5003E4800BC3EE73
:10176E0064809480500AEF2496F5FAC2CCD2CD2232
:10177E00EF4E7007F5FAD2CCD2CD22C3EF9496EE8F
:10178E00648094805006C374969F8001E4F5FAD26B
:04179E00CCC2CD22CA
:080016008F993099FDC2992277
:10067B00020923E86480F8E933E83360110460F081
:10068B00ED33EC337009E8FCE9FDEAFEEBFF2204E5
:10069B0060DED3EB9FEA9EE99DE8C2E78CF0C2F7E0
:1006AB0095F0400CE8CCF8E9CDF9EACEFAEBCFFBAC
:1006BB001208EE85D0F05804700320D5B3E804700F
:1006CB00075002B2D502092D92D5EC0460F7E4CCA9
:1006DB00C0E0C398F8603B94186008400DD0E0FB75
:1006EB00020905E4FBFAC9FC8028E830E406E4C9FA
:1006FB00FBE4CAFCE830E305E4C9CACBFCE85407C9
:10070B006010F8C3E913F9EA13FAEB13FBEC13FCD3
:10071B00D8F130F52FC3E49CFCEF9BFFEE9AFEED76
:10072B0099FDD0E0FBEF4E4D4C701222DB0302091A
:10073B002AEC2CFCEF33FFEE33FEED33FDED30E70F
:10074B00EB020905EF2BFFEE3AFEED39FDD0E0FB96
:10075B0050130BBB000302092DED13FDEE13FEEF3F
:08076B0013FFEC13FC02090569
:10077300EC4D6011E8497017ED33EC3304600DE480
:10078300FCFFFEFD22E933E8330470F8020923126B
:1007930008EE58046009E4CC24815006285009026D
:1007A300092D28400302092AC0E0EB4A7044B980AE
:1007B30006D0E0FB020919EF4E701CBD8008EBFF69
:1007C300EAFEE9FD80EBE98DF0A4FEE5F002085CAA
:1007D300E9CDF9EAFEEBFFEF89F0A4FCE5F0CE8961
:1007E300F0A42EFFE435F0CD89F0A42DFEE435F01E
:1007F3008067EF4E7005BD80D780C3EF8BF0A4AC4C
:10080300F0EE8BF0A42CFCE435F0F8EF8AF0A42C86
:10081300E5F038FCE433CB8DF0A42CFCE5F03BF899
:10082300EE8AF0A42CFCE5F038F8E433CF89F0A489
:100833002CFCE5F038CF3400CE89F0A42FFFE5F08F
:100843003EFEE433C98DF0A42EFEE5F039CD8AF0E7
:10085300A42FFFE5F03EFEE43DFD33D0E0FB50075F
:100863000BBB000F02092DEC2CFCEF33FFEE33FE24
:06087300ED33FD02090552
:1008790075F020800E75F010800575F0087D007EFA
:10088900007F003392D530D503120AF2EC334010C1
:10089900EF33FFEE33FEED33FDEC33FCD5F0ED2203
:0E08A900E5F0247EA2D513CC92E7CDCEFF223F
:1008B700EDD2E7CD33EC3392D524814006E4FFFE39
:1008C700FDFC22FCE4CFCECDCC24E0501174FF8098
:1008D700EDC3CC13CCCD13CDCE13CECF13CF047035
:0708E700F030D5DE020AF239
:1008EE00E9D2E7C933E833F892D5EDD2E7CD33EC50
:0708FE0033FC5002B2D522C9
:10090500EC30E7100FBF000C0EBE00080DBD000453
:100915000BEB6014A2D5EB13FCED92E7FD2274FFFF
:10092500FCFDFEFF22E480F8A2D574FF13FC7D8058
:03093500E480EF6C
:03000000021421C6
:0C142100787FE4F6D8FD75816E02146837
:10093800EF8DF0A4A8F0CF8CF0A428CE8DF0A42ED3
:02094800FE228D
:10094A00BC000BBE0029EF8DF084FFADF022E4CC91
:10095A00F875F008EF2FFFEE33FEEC33FCEE9DEC5A
:10096A00984005FCEE9DFE0FD5F0E9E4CEFD22EDA0
:10097A00F8F5F0EE8420D21CFEADF075F008EF2FEA
:10098A00FFED33FD4007985006D5F0F222C398FDDB
:05099A000FD5F0EA2278
:10099F00C2D5EC30E709B2D5E4C39DFDE49CFCEE73
:1009AF0030E715B2D5E4C39FFFE49EFE12094AC398
:1009BF00E49DFDE49CFC800312094A30D507C3E493
:0609CF009FFFE49EFE22E2
:1009D500E88FF0A4CC8BF0A42CFCE98EF0A42CFCC1
:1009E5008AF0EDA42CFCEA8EF0A4CDA8F08BF0A43F
:1009F5002DCC3825F0FDE98FF0A42CCD35F0FCEB9E
:100A05008EF0A4FEA9F0EB8FF0A4CFC5F02ECD3962
:0F0A1500FEE43CFCEAA42DCE35F0FDE43CFC22CF
:100A240075F008758200EF2FFFEE33FECD33CDCC89
:100A340033CCC58233C5829BED9AEC99E58298400C
:100A44000CF582EE9BFEED9AFDEC99FC0FD5F0D6E9
:100A5400E4CEFBE4CDFAE4CCF9A88222B800C1B913
:100A64000059BA002DEC8BF084CFCECDFCE5F0CB51
:100A7400F97818EF2FFFEE33FEED33FDEC33FCEB8A
:100A840033FB10D703994004EB99FB0FD8E5E4F945
:100A9400FA227818EF2FFFEE33FEED33FDEC33FC32
:100AA400C933C910D7059BE99A4007EC9BFCE99A26
:100AB400F90FD8E0E4C9FAE4CCFB2275F010EF2F6B
:100AC400FFEE33FEED33FDCC33CCC833C810D7076B
:100AD4009BEC9AE899400AED9BFDEC9AFCE899F8A6
:0E0AE4000FD5F0DAE4CDFBE4CCFAE4C8F92239
:1017A200C2D5E830E70FB2D5E4C39BFBE49AFAE472
:1017B20099F9E498F8EC30E717B2D51217D8120A63
:1017C20060E4C39BFBE49AFAE499F9E498F8800395
:1017D200120A6030D50DE4C39FFFE49EFEE49DFD36
:0417E200E49CFC2265
:0E0AF200C3E49FFFE49EFEE49DFDE49CFC2215
:100B0000EB9FF5F0EA9E42F0E99D42F0EC6480C86C
:060B100064809845F0220C
:100B1600EB9FF5F0EA9E42F0E99D42F0E89C45F035
:010B260022AC
:100B2700E86010ECA2E713FCED13FDEE13FEEF13E4
:040B3700FFD8F022D1
:100B3B00E8600FEFC333FFEE33FEED33FDEC33FC18
:030B4B00D8F122BC
:0C0B4E00ECF0A3EDF0A3EEF0A3EFF0221A
:100B5A00D083D082F8E4937012740193700DA3A32A
:100B6A0093F8740193F5828883E47374029368603E
:060B7A00EFA3A3A380DF3E
:10142D0002002EE493A3F8E493A34003F68001F2A7
:10143D0008DFF48029E493A3F85407240CC8C333C0
:10144D00C4540F4420C8834004F456800146F6DF8F
:10145D00E4800B0102040810204080901882E47E85
:10146D00019360BCA3FF543F30E509541FFEE49384
:10147D00A360010ECF54C025E060A840B8E493A34B
:10148D00FAE493A3F8E493A3C8C582C8CAC583CA76
:10149D00F0A3C8C582C8CAC583CADFE9DEE780BE2E
:0118A7000040
:00000001FF
